:04000000803119280A
:100008007E1480310B1F09280A2817282100101C8C
:100018000E280F2817282000101C1328142817282A
:100028008331032380317E10090080311B28FA01B7
:10003800FB0120308400003085002F3083312123DC
:1000480080317E1020008231822AF7002000540877
:1000580086008701403FD600413FD70056088400FC
:10006800570885001200253A031D3B283C288128A3
:100078005408860087010130810741310318810A3D
:10008800C801C901CC01CD01FF30CA00FF30CB0047
:10009800540886008701403FD600413FD7005608E4
:1000A8008400570885001200253A031D5C285D2846
:1000B80076285408860087010130810741310318EA
:1000C800810A2530F4000030F5007708D60056087C
:1000D800F60081318D21803101302000D4000030BC
:1000E800D500A428540886008701013081074131D2
:1000F8000318810AD401D501A42854088600870171
:10010800403FD600413FD700560884005708850075
:100118000008D800D9015808F4005908F5007708F4
:10012800DA005A08F60081318D2180312000540808
:10013800860087010130810741310318810A702840
:100148000800E22820000E1EAA28AB28AE28FA01D3
:10015800FA0AF8280230F2007208FA00F82820009B
:100168000E1AB728B828F8280330F2007208FA00E7
:10017800FB01F82820000E1EC228C328F828B8283A
:1001880014307B02031CC928CA28F82820000E1A3C
:10019800CE28CF28D028AE28FA01FA0A0330430621
:1001A800031DD728D828DD280230F2007208C300C2
:1001B800F8280330F2007208C300F8287A08F20021
:1001C800F3017308003A0319EA28F8287208003A7C
:1001D8000319A628013A0319B328033A0319BE28BC
:1001E800013A0319C428F8280800302903302100EF
:1001F800A20022082000C00048298231E72280316D
:10020800003A03190829092948292000420823002F
:100218009A0003302100A20022082000C0004829CB
:10022800230019082100A20022082000C100230091
:10023800990182314C228031FA288331452380315B
:10024800003A031928292929482902302100A20047
:1002580022082000C0004829200040082100A200F0
:10026800A3012308003A03193A2948292208003A29
:100278000319FA28013A03190129033A0319142921
:10028800013A03192129482908007529C301C30A1D
:100298008C294508803AF20081307202031D5629E4
:1002A800F4304402031C59295A298C290230F200DF
:1002B80072082000C3008C29031022008E1E03142C
:1002C800031867296A2922008E166C2922008E12CB
:1002D8002000C301C30AC401C5018C2922008E1263
:1002E8008C2920004308F200F3017308003A03192F
:1002F8007E298C297208003A03194A29013A031900
:100308004D29033A03196029013A031972298C29E6
:100318000800760803199129922997297608031D60
:10032800962997299C29740883313F238131CE2946
:100338007608083E86008701160001040319A529DE
:10034800A629C5297608083E86008701403F200077
:10035800CF00413FD0007608023E86008701403F2B
:10036800D100413FD2005208803AD3005008803A69
:100378005302031DC1294F0851020318C429C52976
:10038800CE297608023E8600870101308107413177
:100398000318810A080022008C018D0120308E008C
:1003A800373021008C0070308D00DF308E00CF3068
:1003B80023008E00D0308D0017308C0024008D0172
:1003C8008C018E012100951725008C018D018E016D
:1003D800373026008C00F0308D00FF308E003F3023
:1003E80027008C00F0308D00FF308E000D303C006F
:1003F800A40012303D009F0008002000DE005C08C9
:10040800E0005B08DF00C601C7011B2A5F30F80067
:100418007808D4005D08F9007908D5005E088031B5
:100428002920823120005408C6075508C73D5F08B7
:100438008400600885001200031D232A242A0A2A42
:100448004708DC004608DB000800083023009F004E
:1004580090309D0024309E00A0309B0001309C000D
:100468000030F2000030F300833133238231003052
:10047800F2000030F30083312D2382310030F20086
:100488000030F3008331392382312000CE01080087
:10049800552AD730E1008230E2008231B42282311D
:1004A800662A20004108E500E6016608003A0319BB
:1004B8005E2A662A6508483A03194D2A203A031924
:1004C8004D2A662A080001302000C4070030C53DC7
:1004D80003307A06031D712A722A762A0130F00049
:1004E8007008FB076B086C0403197B2A7C2A812A95
:1004F8006C088A006B080A00823108008231F622F3
:10050800823183314F2382318331542382318331C5
:100518004A2382318B170B1781314921823180316F
:10052800A52082318031F9208231902A8031192822
:1005380020009901F03097006030960010101708DD
:10054800EE001608ED00210010145730F2000330B9
:10055800F3008331272382310130200098000800FE
:1005680063302000E3006308E4006208DC006108EF
:10057800DB006430E3006308DD00003082310122D3
:10058800823108002000181DCA2ACB2AD22A181046
:1005980071089700700896001814D62A71089700F9
:1005A800700896000800483465346C346C346F3435
:1005B800203457346F3472346C346434213420342A
:1005C8000A340D340034F2012000101EEC2AED2A02
:1005D800F42A23009E1EF12AF22AF42AF201F20AD2
:1005E800720808008131CF21823183311A23823188
:1005F80082319C22823182312922823108002000F6
:1006080010106E08F1006D08F0008231C6228331A7
:100618008231672283310800F2002000101E152B5A
:10062800162B112B720823009A0008007A3021003B
:1006380099009801220096010800640080010131A8
:10064800890B222B003473082000EC007208EB00A1
:10065800080073082000E8007208E7000800730823
:100668002000EA007208E900080073082100A100D0
:100678007208A0000800F300730883311023833147
:1006880008002000100E890C013908002000C00164
:10069800C101C20108002000C301C401C50108004E
:0806A800FA01FB010800080043
:020000040001F9
:08000000FF3FFF3FFF3FFF3F00
:06000E00FC3FFF3E9F3F96
:00000001FF
